{
  "_format": "hh-sol-artifact-1",
  "contractName": "RiskRegistry",
  "sourceName": "contracts/RiskRegistry.sol",
  "abi": [
    {
      "anonymous": false,
      "inputs": [
        {
          "indexed": true,
          "internalType": "address",
          "name": "identity",
          "type": "address"
        },
        {
          "indexed": false,
          "internalType": "uint8",
          "name": "score",
          "type": "uint8"
        },
        {
          "indexed": false,
          "internalType": "uint256",
          "name": "timestamp",
          "type": "uint256"
        }
      ],
      "name": "ScoreUpdated",
      "type": "event"
    },
    {
      "inputs": [
        {
          "internalType": "address",
          "name": "identity",
          "type": "address"
        }
      ],
      "name": "getScore",
      "outputs": [
        {
          "internalType": "uint8",
          "name": "",
          "type": "uint8"
        }
      ],
      "stateMutability": "view",
      "type": "function"
    },
    {
      "inputs": [
        {
          "internalType": "address",
          "name": "",
          "type": "address"
        }
      ],
      "name": "riskScore",
      "outputs": [
        {
          "internalType": "uint8",
          "name": "",
          "type": "uint8"
        }
      ],
      "stateMutability": "view",
      "type": "function"
    },
    {
      "inputs": [
        {
          "internalType": "address",
          "name": "identity",
          "type": "address"
        },
        {
          "internalType": "uint8",
          "name": "score",
          "type": "uint8"
        }
      ],
      "name": "setScore",
      "outputs": [],
      "stateMutability": "nonpayable",
      "type": "function"
    }
  ],
  "bytecode": "0x608060405234801561001057600080fd5b50610225806100206000396000f3fe608060405234801561001057600080fd5b50600436106100415760003560e01c8063414363e614610046578063d47875d01461007f578063db2ebdad146100ab575b600080fd5b610069610054366004610190565b60006020819052908152604090205460ff1681565b60405160ff909116815260200160405180910390f35b61006961008d366004610190565b6001600160a01b031660009081526020819052604090205460ff1690565b6100be6100b93660046101b2565b6100c0565b005b60648160ff16111561010e5760405162461bcd60e51b8152602060048201526013602482015272053636f7265206d75737420626520302d31303606c1b604482015260640160405180910390fd5b6001600160a01b03821660008181526020818152604091829020805460ff191660ff8616908117909155825190815242918101919091527fdc7724b4287acea67f086bc934c52cc68c455887e1f03d975deaecb3ead652ff910160405180910390a25050565b80356001600160a01b038116811461018b57600080fd5b919050565b6000602082840312156101a257600080fd5b6101ab82610174565b9392505050565b600080604083850312156101c557600080fd5b6101ce83610174565b9150602083013560ff811681146101e457600080fd5b80915050925092905056fea26469706673582212200338dae9353014ce21036dd6dff1899254a0ac404455e1ba48067bd2dc33117c64736f6c63430008180033",
  "linkReferences": {},
  "deployedLinkReferences": {}
}